S01D00006F70656E646973706C61792D626F6F746C6F616465722E733337D7
S3150000000008100020C114000095A5000073A200008E
S3150000001095A5000095A5000095A5000095A50000F2
S3150000002095A5000095A5000014C1000095A5000047
S3150000003095A50000C4C0000095A5000095A5000088
S3150000004095A5000095A5000095A5000095A50000C2
S3150000005095A5000095A5000095A5000095A50000B2
S3150000006095A5000095A5000095A5000095A50000A2
S3150000007095A5000095A5000095A5000095A5000092
S3150000008095A5000095A5000095A5000095A5000082
S3150000009095A5000095A5000095A5000095A5000072
S315000000A095A50000E1150000C115000095A500000A
S315000000B095A500003D86000095A50000E18E000094
S315000000C049BD000045BD0000858600005FBD0000FB
S315000000D04DBD0000B18E000051BD0000218F000013
S315000000E0C9770000197800008D8F000095A50000E3
S315000000F095A5000095A5000095A5000095A5000012
S3150000010095A5000095A5000095A5000095A5000001
S3150000011095A5000095A5000095A5000095A50000F1
S3150000012095A5000095A5000095A5000095A50000E1
S3150000013095A5000095A5000095A5000095A50000D1
S3150000014070B54FF0FF358AB0064633480BF0AAF972
S315000001503249334B334C0B60334B00224B60334BED
S3150000016020461B8825604B82314B1B68CB61314B87
S315000001701B880B82304B1B688B6104F0F3F924A3B8
S31500000180D3E90023CDE900234FF0FF334FF0FF32D0
S3150000019020680BF0F9F92946022220680BF01EFAB6
S315000001A094223C230025CDE903320593962303A927
S315000001B020680693CDE90755099504F089FA02F0FF
S315000001C0F3F92946254620680AF030FA20680BF034
S315000001D060FAB6F9001055F8080B04F0EBFB7668E8
S315000001E066B928460AF0E2FEA37B66F30003A37312
S315000001F02023238409F06AFF0AB070BD3068A0602E
S31500000200B288B379AA80AB71F2E700BFAFF3008082
S315000002100855005100000000690345EC241B00202E
S31500000220393B0000581B0020481B002094C50000E5
S3150000023098C5000096C500009CC500000348044B05
S31500000240834202D0034B03B118477047D0240020E5
S31500000250D024002000000000064B0749C91A891067
S3150000026048BF0131491003D0044B0BB10148184770
S31500000270704700BFD0240020D024002000000000DA
S3150000028010B5064C237843B9FFF7D8FF044B13B1DA
S315000002900448AFF300800123237010BD182400200A
S315000002A0000000001C01010008B5054B1BB1054903
S315000002B00548AFF30080BDE80840FFF7CDBF00BF9B
S315000002C000000000401200201C01010010B5144B74
S315000002D0ADF5087D02AC0FCB84E80F002C2200217F
S315000002E006A80AF0CCFDFF234FF4967200213DA824
S315000002F08DF819300AF0C3FD4822002111A80AF032
S31500000300BEFD6822002123A80AF0B9FD009423ABA4
S3150000031011AA3DA906A800F0DFF80DF5087D10BD6D
S3150000032098C000000122044B1A700023034A137080
S31500000330034A1370704700BF1B2400201A240020B4
S3150000034019240020002238B5134B144C1A700122D0
S31500000350134B1A7023689A78EAB1DA78DAB11A7808
S31500000360510707D5986A09F063FF18B14FF4C030FA
S3150000037000F0AEF923681A7892070CD55D6809F08B
S315000003803FFF854207D923684FF4C030596ABDE85C
S31500000390384000F06DB938BD1B24002070120020D3
S315000003A01A24002007B5024601200B4606490870AC
S315000003B0064907480968009106490068096800F07F
S315000003C0A9FB03B05DF804FB192400206C12002081
S315000003D06812002070120020044A054905482023AF
S315000003E012680968006800F05BBB00BF601200205D
S315000003F06412002068120020094B1A68D37892789C
S315000004002AB1002B41F20C0018BF0020704741F2C0
S315000004100C0240F20570002B08BF1046704700BF63
S315000004207012002008B502F0ADFB01F0D9FF01F013
S31500000430C7FFBDE8084001480AF029BD5812002050
S3150000044010B5234B234C18681B7992B08DF80C30ED
S3150000045023880290ADF80D30A37868468DF80F30EA
S315000004600AF023FD41F60833ADF810309DF806304A
S31500000470BDF80420C3F300038DF8183040F60223BC
S31500000480ADF8283000230098ADF816208DF82A30F4
S31500000490CDF8120002F05AFD02F05EFD204603215F
S315000004A002F060FD02F066FD02F04AFD112102A88D
S315000004B00AF00FFD03210AA80AF012FD01200AF036
S315000004C016FD002840F2017008BF002012B010BDD2
S315000004D0A8C00000AEC0000070B5134C134E2060DB
S315000004E01348144D016014490A60144A1360049AB3
S315000004F0134B1A6033780BB10AF0D5FC2B78002B1E
S31500000500F8D0104B1B784BB123689A784AB1DB7848
S3150000051040F20570002B18BF002070BD40F203703A
S31500000520FBE740F20570F8E7701200201B2400205C
S31500000530681200201A240020641200206012002095
S315000005406C12002019240020F0B5421ED11C03466F
S3150000055085B018D86E460D4C04F110073546206854
S315000005606168083403C5BC422E46F7D104A90F338F
S3150000057011F8014D12F8010F844204D19A42F7D1C5
S31500000580012005B0F0BD0020FBE700BFB2C00000AF
S31500000590F0B50368044603F16043B3F5004F4FF02E
S315000005A000069FB030D8B26A436817699F422BD8BD
S315000005B0B3F5B02F28D8456B07F14003AB4253D8AB
S315000005C0B5F5B02F50D82846FFF7BEFF00284BD010
S315000005D0284609F0FBFD80B16B6973B1022B0ED181
S315000005E0AB69C4F1040119444FF0FF32204600F014
S315000005F0ADFD1E4BC31A584258411FB0F0BD766B75
S315000006003046FFF7A1FF08B90020F6E7A7F150032F
S315000006109E42F9D8284603A909F0DFFD0028F3D049
S31500000620039DAF42F0D8AC42EED8B5F5B02FEBD86B
S3150000063004A800F047FE21462A1B04A809F045FF3E
S3150000064004A809F044FF00F051FE044600F052FEF3
S3150000065023460090294605F1200204A800F0B8FDC3
S31500000660B0FA80F04009C8E70120C6E7E320BBDE08
S3150000067070B54FF0FF328AB005460C4600F066FDB5
S31500000680114B98421CD140F2022000F00FF90F4E98
S315000006902022002102A80AF0F2FB294601A80196B1
S315000006A00BF0D7FC211F01A80BF0D3FC0AF068FB66
S315000006B0B04202D101A80AF06FFB01A80BF028FC9A
S315000006C000200AB070BD00BFE320BBDE0100064378
S315000006D010B504468AB040F2022000F0E7F8202266
S315000006E0002102A80AF0CBFB054B214601A8019385
S315000006F00BF0AFFC01A80BF00BFC00200AB010BDFC
S315000007000000034310B501F049FE01280DD1214B2D
S3150000071004205A6E4FF480231F494B6601F51041A1
S31500000720086250035CBF1D4A53661D4BD3F88420F4
S31500000730110606D44FF400621A67D3F88420D20655
S31500000740FBD409F088FD00F09BF809F0DEFC09F007
S31500000750DEFC18B14FF4017009F0FDFDFFF7B6FDA0
S31500000760044609F0D6FC34B940F2012009F0F3FD45
S315000007704FF4017009E040F203739C42F4D0A4F2F6
S315000007800574012CF4D840F2032009F0E4FD0020A2
S3150000079010BD00BF008000500090005000A0005027
S315000007A0004000500123F7B58DF806308DF807306C
S315000007B02E4BD3F894305A060FD500F083F8A0F2EA
S315000007C0022080B2072808D8C923C340DB0742BFEE
S315000007D000238DF806308DF807304FF490335B68B0
S315000007E0013308D14FF4027000F060F800238DF851
S315000007F006308DF807309DF8073063B14FF490301E
S31500000800FFF7C6FE8DF806009DF806301BB94FF4BB
S31500000810027000F04BF89DF806302BB34FF40045FC
S315000008204FF0FF32124B134C9D6603F174431A6668
S315000008304FF6FF725A660023C4F8D030BFF34F8FCD
S31500000840BFF36F8F4FF440370B4E032001F014FEB9
S315000008500320376101F030FE4FF49030074BF7600C
S315000008609D66A06009F0FBFC03B0F0BD004000509F
S315000008700090005000ED00E000A0004400A00050F1
S315000008804CF23C32014B5A80704700BF00000020FA
S315000008904AF6C030044B5B8823F00F039BB21B1A49
S315000008A058425841704700BF00000020044A08B56E
S315000008B01080FFF7EDFF10B94FF20F03538008BD0C
S315000008C0000000204FF20F01084B5A888A4201D1DE
S315000008D0188870473AB91B8840F20220012B18BFCE
S315000008E04FF4007070474FF400707047000000200E
S315000008F04FF4003208B5044B9A6601F09BFCB0FA3F
S3150000090080F0400908BD00BF00900050072BF8B5E5
S3150000091006460F4614461D4601D90020F8BD0121A2
S31500000920202001F01DF80121212001F019F88CB1D9
S3150000093044EA06039B07F0D14FF40032064B3146DA
S315000009409A66284623463A4601F09EFCB0FA80F0A5
S315000009504009E3E70120E1E70090005030B5024688
S3150000096000230C25054905FB03F460180C59944235
S3150000097003D001330C2BF6D1002030BD5CC1000042
S31500000980F0B50023082787B0CDE9013315463B466D
S31500000990009704AA044609F006FD41F203039842B3
S315000009A0064623D194F8433053B13A46E06C04A985
S315000009B009F08BFD04AA3B461146A06C09F074FDB4
S315000009C0059A049B6A6094F843202B6052B9094A41
S315000009D0934207D0084A934204D00822E06C04A947
S315000009E009F073FD6B68236500236365304607B025
S315000009F0F0BD00BFF70A0AF7FC0404FC2DE9F04736
S31500000A0099465B6804460F469046002B3ED011F08F
S31500000A1003033ED19B6A006E1B6981181D1DA94206
S31500000A201BD31C33984218D2A842024638BF2A4626
S31500000A30994294BFC2EB010AC2EB030A101A3E1890
S31500000A40C5F1680010443146524620440AF0E0F9E8
S31500000A505246FF2130460AF012FA226E0E4B9A4297
S31500000A600BD80E4902EB0800884206D99B1AFA58A1
S31500000A70C4F880204FF0FF32FA50D9E900354246DB
S31500000A803946206EA847236E434423660020BDE8FE
S31500000A90F08741F20200FAE70480010007800100B6
S31500000AA02DE9F04100254FF0FF37044688461646EB
S31500000AB003F0200380F842301822FF21C0E91855C0
S31500000AC0A0F8405080F84350A0F8445080F84650B3
S31500000AD0C0F8887068300AF0D2F988222946C4E93D
S31500000AE01286C4F88070C4F8847004F190000AF08D
S31500000AF0C6F9074BC4F82071C4E946350123A4F8AA
S31500000B00243116B1304600F0DDFB0020BDE8F0814F
S31500000B10000101012DE9F04F9BB09946CDE907236D
S31500000B20002304460E464FF00108249D09930999B7
S31500000B30B7E094F846300C2B00F2AF80062B7BD939
S31500000B4008FA03F212F4286F40F0DD8112F4885F90
S31500000B5040F09C810A2B40F0A480DFF80CB4636D52
S31500000B60072B00F24D814FF0080A38232046CDE9C5
S31500000B700188CDF800A00CAA07A909F014FC41F2DF
S31500000B800303984240F0A680337843F004033370A1
S31500000B900D9BB36273785F071CD50020236DCDF8DB
S31500000BA028B0C4F8843094F84530606643F00203F8
S31500000BB084F84530EF686FB104222B680AA9B8475C
S31500000BC0606E2B685246EF680CA95044B847636EB6
S31500000BD0103363660B2384F84630C0E7A3F10E0298
S31500000BE0052A00F23C82DFE812F0A9020600F400B2
S31500000BF0EC01EC01A7020027636D0F2B00F2998030
S31500000C00102320460093CDE9018740230AAA07A9AD
S31500000C1009F0C9FB41F2030398425BD1D4F848A01E
S31500000C2000F06CFB80230221CDE900030BAA01230F
S31500000C30504600F0A3FADFE7013B052B36D8DFE884
S31500000C4013F07A00740006006201D2002D0101271C
S31500000C50636D072B00F2D480082320460093CDE96C
S31500000C60017740230AAA07A909F09DFB41F2030375
S31500000C7098422FD133780B9A43F0020333700A9BC4
S31500000C807360236D083B7362002A00F0E080132333
S31500000C9084F8463041F201001CE0A3F10D02062A59
S31500000CA09CD94945FFF445AF002064E020460AAAD6
S31500000CB007A9FFF765FE41F2030398420AD10B9B91
S31500000CC00A9A236500236365A54B9A42DFD1022366
S31500000CD084F8463041F203030590059A9A423FF4A0
S31500000CE026AF47E0082320460093CDE9018740233D
S31500000CF00AAA07A909F057FB41F203039842E9D172
S31500000D000A9B03F07F43B3F1407F05D0132341F2E2
S31500000D10090084F84630DDE70B9BD80706D594F822
S31500000D20423043F0010384F842300027636D072BFD
S31500000D30D8D90123AFE020460AAA07A9FFF720FE6B
S31500000D4041F203039842074609D10A98FFF706FEC7
S31500000D50024698B9132341F2080784F8463041F257
S31500000D6003030597059A9A423FF4E1AE059B0BB142
S31500000D700023F37005981BB0BDE8F08F437994F813
S31500000D802511994205D9132341F20E0784F84630FE
S31500000D90E5E701687348814205D01189C90748BF54
S31500000DA0013384F8253194F84230D8070DD51189DE
S31500000DB094F84330890706D53BB1132341F2010766
S31500000DC084F84630CBE7002BF7D0137984F8463009
S31500000DD0C5E7226D0123A265002284F84330E2654F
S31500000DE084F84630A3E600213C220BA80A9101278D
S31500000DF00AF045F8D4E91432934204D884F84670D0
S31500000E0041F2030066E7009320464023CDE90177CF
S31500000E100AAA07A909F0C7FA41F2030398427FF428
S31500000E2059AF0DF1280C06F108030DF1400E62468C
S31500000E3003CA724518605960944603F10803F6D157
S31500000E4010681860337843F001033370D2E7042347
S31500000E5084F8463094F84530626643F0010384F81E
S31500000E604530F5E6042320460093CDE9017740237B
S31500000E700AAA07A909F097FA41F2030398427FF4F8
S31500000E8029AF226D0A9B042A01D923660127636DC7
S31500000E90032BE7D9092384F84630B1E700236366BC
S31500000EA007239DE79F423ED89F4228BF1F46402307
S31500000EB02046CDE9018800970AAA07A909F073FA26
S31500000EC041F2030398427FF405AF94F846B0BBF1B4
S31500000ED0070F37D0042FC7F1040A88BF4FF0000A66
S31500000EE00AAB5246FF21D81909F0C9FFBBF1090F19
S31500000EF0BA443BD12B46524620460AA9FFF77EFD4F
S31500000F0000287FF4E7AED4E914739F427FF611AF51
S31500000F10FF1ADDE908329B1A94F84020032F134488
S31500000F20C0D9032B05D8204607A909F01BFA0020D3
S31500000F30D0E6402F28BF40279F4228BF1F4627F0F4
S31500000F400307B4E7D5F808A0BAF1000FC2D02B68A2
S31500000F503A46606E0AA9D047636E3B446366D2E7A1
S31500000F60EB17A603F90707F9EB17A65EBBF1040F0B
S31500000F701DD173789807C6D5EB68002BC3D0626E77
S31500000F80042A0BD80AEB0203062B07D90BAB9B1AD4
S31500000F901A68C4F884204FF0FF321A60EF682B6895
S31500000FA05246606E0AA9B847636E5344D6E7BBF152
S31500000FB00B0FA8D173785907A5D5EF68002FEED18E
S31500000FC0A1E700218A6A496B1269503A91423FF6BD
S31500000FD061AE112B0AD194F81831002B7FF4A9AE1B
S31500000FE0132341F2060084F8463073E694F8443041
S31500000FF0002B7FF49EAECDE90133402320460093BB
S315000010000AAA07A909F0CFF941F2030398427FF42F
S3150000101061AEE06C09F05BFA94F818316BB104F13B
S31500001020B4030093E06C04F1940312AA0AA900F039
S31500001030CFF878B10023F370D2E7D4F84CA000F0D3
S3150000104055F9074600F056F93B46009012AA50465D
S315000010500AA9ECE70123F37084F8443069E600231B
S315000010604FF00408CDE9013320464023CDF8008037
S315000010700AAA07A909F097F941F20303984209D190
S31500001080D4F888202F4B9A4206D0132341F205004C
S3150000109084F8463005906DE60123F37094F84530E8
S315000010A0DA0707D5EF682FB1424640462B6804F1B0
S315000010B08401B84794F845309B0707D5EF682FB1F0
S315000010C004222B68104604F18401B847236E63B3EB
S315000010D06F6857B34FF0FF3304F18008042241468E
S315000010E006A8069309F0A1FE20B1042241462B680A
S315000010F01548B84704F168090422494606A809F0CC
S3150000110094FE90B100239B6A1422D3F8108004F158
S315000011106C0108F10800D5E90037B847D5E9003772
S315000011200422494608EB0200B8470123B3700E2398
S31500001130002084F84630ADE70023F37041F2070043
S3150000114019E600BFE320BBDE0480010030B50824A9
S31500001150094B00255C66012403F5FE235C6001440F
S315000011609D601A61DC60884201D1586A30BD10F872
S31500001170012B1A62F7E700BF00900050F8B516463B
S315000011804FF400521D46114B04469A660222C3F8DC
S3150000119060220F4609F0FAFCDDE90612204609F046
S315000011A0F9FC002384F8387063623368C4F8393078
S315000011B07368C4F83D30B368C4F841302B0C6DBA7F
S315000011C084F84530A4F84650F8BD00BF00900050A2
S315000011D02DE9F041B0B014460D461A460646369B38
S315000011E0002867D0002965D0002C63D0002A61D082
S315000011F0002B5FD006214FF4005006912F4920AFF7
S3150000120088660320C1F860020021BE4609910C9150
S315000012100F9105F12008F446286869680835ACE89E
S3150000122003004545E646F6D10DF1A00C04F1200E6B
S31500001230654620686168083403C57445AC46F7D135
S315000012400DF1400C654602F1200E2C4610685168DF
S31500001250083203C472452546F7D118AC03F12005C0
S31500001260224618685968083303C2AB421446F7D1C0
S315000012704023CDE90A73089320230AAA0E9303ABF1
S3150000128007CACDF81CC00D9683E8070007AB93E8A4
S3150000129007008DE807000DAB0ECB094809F0B0FB3F
S315000012A00690069B40F20460002B08BF002030B079
S315000012B0BDE8F08140F20160F9E700BF0090005000
S315000012C06CC300004FF40052074B10B59A66022219
S315000012D00446C3F8602209F0FDF82046BDE8104038
S315000012E0002109F0FBB800BF00900050004870478D
S315000012F04C630500004870476C6305000048704762
S31500001300866205002DE9F3471446DDE90A920D468B
S315000013101F4600284DD14CB313683F2B2AD851687D
S3150000132051B32549002F14BFB846884603F03F063F
S315000013301B19136022BF536801335360FEB93F2C5B
S315000013400ED9A3092A46009341463B46002009F0E0
S31500001350DEF824F03F031D4404F03F0434B10026B8
S315000013602246294609EB060009F052FD002002B08C
S31500001370BDE8F087B846D9E7DFF83C80D6E7C6F186
S31500001380400A5445ECD32946524609EB060009F0BB
S315000013903FFD0123264400934A463B464146002032
S315000013A0A6F1400409F0B3F83F2C5544D6D9B84607
S315000013B0C7E70248DBE700BF2CC2000080AFFFFF93
S315000013C02DE9F0411746146886B01E46E3008DF8F5
S315000013D00F3063098DF80E30630B8DF80D30630DF9
S315000013E08DF80C3053680546DA0002EB54728DF81E
S315000013F00B2004F03F045A09372C8DF80A204FEAD7
S3150000140053324FEA53538DF80920884694BFC4F1EE
S315000014103802C4F17802CDE900178DF808300D497D
S3150000142003460020FFF76EFF08222B460020CDE979
S3150000143000870DEB0201FFF765FF284605F1200343
S3150000144050F8042B984246F8042BF9D1002006B038
S31500001450BDE8F081ECC10000064B0748DA1C121A01
S31500001460C11E22F00302994288BF0022034909F0F7
S31500001470CFBC00BFD024002058240020300101003A
S31500001480064B0748DA1C121AC11E22F003029942C3
S3150000149088BF0022002109F0F2BC00BF58240020BA
S315000014A0081000200348044A0449121A921009F051
S315000014B072B800BF4001000040010000582400201F
S315000014C008B5074B83F30A8800F00CF8FFF7EAFF2C
S315000014D0FFF768F9FFF7C0FFFFF7D2FFFFF712F932
S315000014E0080000204FF40041134B144A70B59A606F
S315000014F0D3F88820124D42F47002C3F88820114AAE
S3150000150005F5005491664FF0FF3222664FF6DF7202
S3150000151062660222C3F8D020BFF34F8FBFF36F8FEE
S315000015204FF44036032000F0C7FF0320E66000F0CA
S31500001530B5FF2E6170BD00BF00ED00E000000000A9
S315000015400080004400900050BFF34F8F0549064BC2
S31500001550CA6802F4E0621343CB60BFF34F8F00BF4B
S31500001560FDE700BF00ED00E00400FA05F8B504460B
S315000015700127124D0CB314F001000BD0002024F00B
S31500001580010405EBC0021668002EF3D05168C0B204
S31500001590B047EFE72246013020284FEA520201D039
S315000015A0D307F8D507FA00F20F2824EA0204E8D98F
S315000015B0421E05EBC2021038E5E7F8BD74120020A2
S315000015C008B500F0F3FE054B00F0553020F0502032
S315000015D0C3F82004BDE80840FFF7C8BF00E0035089
S315000015E008B500F0E3FE054B00F0AA3020F0A0207D
S315000015F0C3F82004BDE80840FFF7B8BF00E0035079
S31500001600044BD3F88420D206FBD4D3F88400C0F36D
S31500001610811070470040005038B5184B0546D3F886
S3150000162024010C4600F00700062823D8DFE800F066
S31500001630040A121A1E0E1600012305B1286004B111
S31500001640236038BD0AF0A8FB0523F6E70AF0A4FBE1
S315000016500623F2E70AF058FC0323EEE70AF054FCEF
S315000016600423EAE70AF04CFC0223E6E70AF0D2FC80
S315000016700723E2E700231846DFE700BF008000509B
S3150000168038B5104B0546D3F800310C4603F003037A
S31500001690022B0BD0032B0DD0012B0FD10AF034FCFB
S315000016A0032305B1286004B1236038BD0AF0B4FCF9
S315000016B00823F6E70AF0AEFC0723F2E70123002031
S315000016C0EFE700BF0080005038B5104B0546D3F851
S315000016D020310C4603F00303022B0BD0032B0DD055
S315000016E0012B0FD10AF058FB052305B1286004B180
S315000016F0236038BD0AF008FC0323F6E70AF000FC75
S315000017000223F2E701230020EFE700BF008000502C
S3150000171038B5104B0546D3F840310C4603F00303A9
S31500001720022B0BD0032B0DD0012B0FD10AF077FC27
S31500001730092305B1286004B1236038BD0AF06CFCAA
S315000017400823F6E70AF06EFC0B23F2E701230020DC
S31500001750EFE700BF0080005038B5104B0546D3F8C0
S3150000176060310C4603F00303022B0BD0032B0DD084
S31500001770012B0FD10AF053FC092305B1286004B1EF
S31500001780236038BD0AF048FC0823F6E70AF04AFC55
S315000017900B23F2E701230020EFE700BF0080005093
S315000017A073B50D4600210E4B0191D3F880410646D4
S315000017B004F00304012C09D0022C0CD00C460EB107
S315000017C0019B336005B12C6002B070BD01A8FFF724
S315000017D07BFF0F24F3E70AF093FB0190EFE700BFCE
S315000017E00080005038B5104B0546D3F840320C4601
S315000017F003F00303022B0BD0032B0DD0012B0FD1CB
S315000018000AF00DFC092305B1286004B1236038BD38
S315000018100AF002FC0823F6E70AF004FC0B23F2E7C1
S3150000182000231846EFE700BF0080005038B5144B80
S315000018300546D3F800020C4600F0070004281BD822
S31500001840DFE800F003090D111500012305B128603A
S3150000185004B1236038BD0AF0E2FB0923F6E70AF07B
S31500001860DBFB0823F2E70AF0DDFB0B23EEE70AF0C9
S3150000187035FB0E23800AE9E700231846E6E700BF9A
S315000018800080005010B40D4C0B46D4F8204204F0F2
S315000018900304012C0AD0022C0CD008B100210160EF
S315000018A00BB100221A605DF8044B70475DF8044BDB
S315000018B0FFF70ABF5DF8044BFFF72ABF0080005010
S315000018C0B0F5207F1FD009D8B0F5007F15D003D81A
S315000018D068B1B0F5C07F0AD000200CE0B0F5607F9B
S315000018E0FAD10B4BD3F88000C0F3011003E0084B8C
S315000018F0186FC0F3033001307047054BD3F89000E2
S31500001900C0F30460F7E7024B186FC0F38020F2E7DC
S31500001910008000504FF400320E4B014610B50020F7
S315000019209A66FFF7CDFF484341F671320A490B4BE1
S31500001930884294BF00200120DC69DA639A6822F4A9
S31500001940401242EA00529A60E20344BF0022DA6380
S3150000195010BD00BF00900050005A62020000035004
S31500001960420910B50FD0012A0FD00A4B0A4C022AA1
S3150000197018BF234600F01F0049B103F5805301222A
S3150000198082401A6010BD1346F4E7044BF2E703F5F4
S315000019900053F4E768800050608200506480005075
S315000019A01FB50021B0F5807F0446019100F0068145
S315000019B000F29D80612800F295801F2805D8002836
S315000019C040F092800AF08AFADCE0A0F12004412C73
S315000019D000F28A8001A353F824F000BFC519000065
S315000019E0891B0000C5190000891B0000A91B000007
S315000019F0A91B0000A91B0000A91B0000891B0000F1
S31500001A00891B0000631B00001D1B0000DF1B00007C
S31500001A10E91B00001D1B0000891B0000891B00003C
S31500001A20891B0000E91A0000E91A0000E91A000003
S31500001A30E91A0000E91A0000E91A0000B31B0000C9
S31500001A403F1B0000891B0000891B0000891B00004A
S31500001A50FD1B0000F31B0000891B0000E91A0000B3
S31500001A60E91A0000E91A0000E91A0000E91A000064
S31500001A70E91A0000E91A0000E91A0000E91A000054
S31500001A80E91A0000E91A0000E91A0000E91A000044
S31500001A90C5190000E91A0000C5190000C5190000A3
S31500001AA0C5190000A91B0000E91A0000E91A000088
S31500001AB0E91A0000E91A0000E91A0000E91A000014
S31500001AC0E91A0000E91A0000E91A0000E91A000004
S31500001AD0E91A0000E91A0000E91A0000C519000019
S31500001AE0C519000080284BD0019804B010BDB0F590
S31500001AF0A06F5ED028D8B0F5607F50D019D8B0F569
S31500001B00007F4CD004D8B0F5C07F3FF45BAFEBE765
S31500001B10B0F5207F38D0B0F5407FE5D10AF0DEF988
S31500001B2002464FF42070FFF7CBFEB2FBF0F25208EC
S31500001B3033E0B0F5806F37D0B0F5906FD4D1002187
S31500001B4001A8FFF769FDCFE7B0F5E06F51D00DD8DA
S31500001B50B0F5C06F43D0B0F5D06F45D0B0F5B06FDB
S31500001B60C2D1002101A8FFF71BFEBDE7B0F5F06F5B
S31500001B7044D0B0F5086FB7D101A8FFF781FDB3E7F0
S31500001B800AF094F90190AFE70AF0A8F902464FF47B
S31500001B902070FFF795FEB2FBF0F20192A4E70AF07F
S31500001BA085F902462046F4E7002101A8FFF78CFDDF
S31500001BB09AE7002101A8FFF765FE95E74FF0E023BD
S31500001BC002911B695B0705D50AF088F90290029B12
S31500001BD0019389E703A902A8FFF79AFDF7E7002119
S31500001BE001A8FFF795FD7FE7002101A8FFF71EFE7C
S31500001BF07AE7002101A8FFF7F5FD75E7002101A8A6
S31500001C00FFF7AAFD70E700BF08B58020FFF7C8FE02
S31500001C10034B98429EBF4FF48032024B1A6708BDB1
S31500001C20005A620200A000501FB503460020B3F51B
S31500001C30807F01906FD027D8382B00F082800BD898
S31500001C40243B092B0FD8092B0DD8DFE803F05F5F83
S31500001C505F5F0C0C5A0C3675522B57D007D83D2BAC
S31500001C603AD03E2B72D0019805B05DF804FB802B6C
S31500001C70F9D1394B1B6F03F00703013B032BF2D855
S31500001C80DFE803F03D36393BB3F5D06F54D019D8B1
S31500001C90B3F5A06F55D00AD8B3F5806F36D0B3F53B
S31500001CA0906FE0D1002001A9FFF7B6FCDBE7B3F5A2
S31500001CB0B06F26D0B3F5C06FD5D1002001A9FFF7CC
S31500001CC027FDD0E7B3F5006FECD00AD8B3F5E06F87
S31500001CD03CD0B3F5F06FC6D1002001A9FFF73CFD5B
S31500001CE0C1E7B3F5086FBED101A9FFF7C9FCBAE792
S31500001CF005230193B7E70323FBE70723F9E702234D
S31500001D00F7E7002001A9FFF74BFDACE7002001A98A
S31500001D10FFF7DAFCA7E74FF0E02302901B695B07A9
S31500001D2005D50AF0DBF80C230393039BE1E703A92F
S31500001D3002A8FFF7EDFCF8E7002001A9FFF776FD02
S31500001D4091E7002001A9FFF79DFD8CE7002001A97E
S31500001D50FFF748FD87E700BF008000504FF40022E0
S31500001D60034B5A66012203F580439A62704700BF0F
S31500001D7000900050F8B504468020FFF755FF032871
S31500001D8000F087804FF40022424B02215A6645F646
S31500001D900E03414AC2F88030404B9962012103F597
S31500001DA080539962936DD903FCD4D4E900131B05C3
S31500001DB043EA0163E17B94F820500B43217BE77EE5
S31500001DC043EA0143617B6D0143EA0133A17B43EAA8
S31500001DD0811313619169D4E904031B0643EA806306
S31500001DE001F000410B43A17E94F823000B43217EB2
S31500001DF043EA0143617E43EA01239361136AE6697C
S31500001E0023F00D0394F8221043EA8703002E2DD108
S31500001E101362966A94F8213045EA031326F03305D7
S31500001E202B4343F0010393621D4D1B4B9A6D35EA1C
S31500001E300202FBD10222194DAA621A659A6D52005E
S31500001E40FCD41A69A56822F4700242EA05521A61A6
S31500001E504FF00042114B9A6119B9022203F58053E3
S31500001E609A6278B901220F4B9A620BE0334343F032
S31500001E7008031362936A23F0330303432B4343EAB5
S31500001E804103936294F824301BB1034B064AC3F80E
S31500001E908020F8BD0090005000C0005000D00050D7
S31500001EA00300014000E00050F1A7FFFF014B93F94A
S31500001EB0000070471D240020014B1880704700BFAA
S31500001EC0B4240020B0F5207F10B50C4642D008D8C7
S31500001ED0B0F5007F33D003D888B1B0F5C07F0ED0FF
S31500001EE010BDB0F5607FFBD11F4A4C1ED2F8803082
S31500001EF023F0300343EA0413C2F88030F0E708F019
S31500001F007CFB08F088FB4FF48031184B164A1967A2
S31500001F10136F013C23F4704343EA0433136709F05B
S31500001F20DDFF0446FFF76CFBC0F10201204608F016
S31500001F306CFB00F035F8BDE81040FFF765BE0A4AB5
S31500001F404C1ED2F8903023F0F85343EA0463C2F8EB
S31500001F509030C5E7044A4C1E136F23F4806343EAAE
S31500001F6084231367BCE700BF008000500090005038
S31500001F7008B50121022000F045F84FF42070FFF764
S31500001F809FFC054B187008F038FB08F044FB4FF433
S31500001F908032024B1A6708BD1C24002000900050B6
S31500001FA008B54FF4C070FFF7FBFCBDE808400449D4
S31500001FB0884294BF012102214FF42070FFF782BFAF
S31500001FC080F0FA0238B5044609F088FF0546FFF7A7
S31500001FD017FBC0F10201284608F017FB012100207B
S31500001FE000F050F82CB1FFF7DBFFBDE83840FFF7F3
S31500001FF00BBE034B4FF420701978FFF763FFF4E72D
S315000020001C240020F8B504461C4BD3F88420D106C6
S31500002010FBD4D3F88430C3F381139C422CD009F04F
S3150000202045FF012C064602D1214608F0EEFA0AF0D9
S3150000203001F84FF00072124B07465A66204608F028
S31500002040EFFA4FF480630D4D621E93402B676B6E63
S315000020509A0103D4D5F884309B060AD5384609F090
S31500002060E4FF022C08D13046BDE8F840002108F014
S31500002070CCBAD5F88430EAE7F8BD00BF004000507E
S315000020800060005010B50C4608B909F00FFF074B69
S3150000209021461B783BB1064B984204D80120BDE887
S315000020A01040FFF7AFBF0220F9E700BF1E24002053
S315000020B0005A62024FF0004238B5264B26495A664E
S315000020C001224A604AF6CD3103F50B235D6C196493
S315000020D0154030BB9968C9070BD4002401221F4B59
S315000020E05A6015B11E4B1F4A1A6409F08EFA204633
S315000020F038BD1A498A601C4AD96ACC0705D4904271
S3150000210001D10724EAE70130F6E79042E5D1F8E786
S315000021100132DC6A14F0080406D08A42F8D107249A
S31500002120DFE700221049F4E78A42F8D020220B4B61
S315000021300B495A620122A3F580539A6023460A4A44
S31500002140486A800603D49342E9D00133F8E7934204
S31500002150C7D1E4E7009000500050095000600950D4
S31500002160004009503254FFFF40420F004FF000423A
S3150000217038B5174B174C5A66012203F50C235A60E3
S315000021804AF6CD33656C2364437893401343124A71
S31500002190D363C3788178A2689B0043EA011322F0D7
S315000021A074021343A3600279837943EA022323610D
S315000021B04279C37943EA022363610078FFF77AFF25
S315000021C0EB0744BF054B236409F01FFA012038BD15
S315000021D00090005000400950004000503254FFFF6C
S315000021E0F0B5114A114C124E00F00105E3695F0784
S315000021F013D40DB9334213D103EA00078F4207D136
S315000022000B4A1A40002A0CBF00206FF00100F0BDF7
S31500002210013AEBD16FF00200F9E74FF0FF30F6E735
S315000022206FF00100F3E700BF8096980000000350AE
S31500002230020001004FF4003238B50F4B0F4C9A667E
S3150000224041F671330122E569E3630D4B0021DA6043
S31500002250022360612120236105F48035FFF7C0FF6A
S3150000226010B92120FFF7BCFF0122064BDA600DB141
S315000022700023E36338BD00BF009000500000035008
S3150000228000100350002003502DE9F04F01244FF4B5
S3150000229040262C4DDFF8C4C04FF40037CCF804407C
S315000022A045F8206030250026DFF8B4E0DFF8B4906A
S315000022B005FB00E5EE652E662E67234EDFF8A8A027
S315000022C0B76641F67136214F04FA00F0D7F81C8044
S315000022D0FE631F4EF46043B901211E4A18F4803F85
S315000022E0D16029D10020BDE8F08F01F5005404EA41
S315000022F00904641A9C4228BF1C467961D7F81CB0B1
S31500002300A6081BF0040F19D1013E360146F06056AF
S315000023106E66AA66C5F86CA0CCF82400DEF83460B8
S315000023203042FBD00C4E214470630426CCF82800C2
S3150000233022443E611B1BCEE7FB63D3E74FF0FF3021
S31500002340D1E700BF00400450009000500000035049
S3150000235000100350002003500020045000100450C9
S315000023600000045000E0FFFF180003504FF48032D5
S31500002370064B5A6603F5E6235B69C3F38512827042
S3150000238003F03F021B0B4270037070470090005031
S31500002390014B986CD96C70470080E00F024B1868AF
S315000023A0C0F30740704700BF0080E00F034BD3F82F
S315000023B02424D3F820041040704700BF00C0035007
S315000023C007B56B46054A1068516803C36846FFF7B0
S315000023D0CDFE002003B05DF804FB00BF58C200002C
S315000023E030B58BB06C46174D0FCD0FC40FCD0FC453
S315000023F095E8030084E80300134BD3F84C2112033D
S315000024001CD5A3F5FE431C884FF6FF739C4208BFFC
S315000024108C248DF81940FFF749FD204480F308000D
S315000024208DF81800094808F0C3F86846FFF7A2FCC3
S315000024303220FFF741FD00200BB030BDD3F85041EC
S31500002440E4B2E6E760C200000080E00F00F0490257
S315000024500028ACBF00F16040064B4FEA0111C9B23B
S31500002460ABBF00F5614000F00F0080F8001319546F
S31500002470704700BF14ED00E000280CDB012206497E
S31500002480430900F01F008240203341F82320BFF3A8
S315000024904F8FBFF36F8F704700E100E0002807DB26
S315000024A001234109034A00F01F00834042F821300E
S315000024B0704700BF00E100E0002808DB0122430965
S315000024C0034900F01F008240603341F82320704723
S315000024D000E100E038B508460C4609F0A3F80346CB
S315000024E020B994E80700024D85E80700184638BD74
S315000024F0641300202DE9F0432A48079F847A94420A
S315000025004CD9066802EB42024FEA820C16EB8202B5
S3150000251046D05089002843D0B2F90440B2F906509B
S315000025208C42B2F908E02FDCA942A8BF2946BEF1C9
S31500002530000F35D000F1FF381FFA88F80EFB084966
S315000025400A1B92FBFEF24D45D8BF404692B290421E
S3150000255002D3A94218BF104656F80C2052F8206044
S3150000256002EB800C18B15CF8048D46450ED08D4206
S315000025701EBF1EFB00F1091909B2994209DC0020B1
S315000025803E60B980BDE8F0832146D0E7013880B2CD
S31500002590E8E70028F3D0013880B2DFE70E20F1E744
S315000025A00220EFE76413002008B506494FF0FF301C
S315000025B0FFF790FFBDE8084001214FF0FF3009F01A
S315000025C033B800BF8CC2000060B5054619B10139A9
S315000025D0B1F5806F0FD2094EF06810F48030FBD150
S315000025E043EA012312072B4302F08052134343F0C0
S315000025F00043736060BD0120FCE700BF0020025C61
S315000026000122054B9A60DA68D203FCD4D86820F020
S315000026100F000004000C70470020025C0322024BEE
S31500002620186019615A6370470000025C82B01FB5DA
S3150000263007930A9B04AC8B4228BF0B4604E90700AC
S315000026401048D100079948BF03330160099948BF74
S3150000265023F0030323F0704301F0E041194341F0F6
S3150000266000518160002102F0E042019C1A4342F0D1
S315000026700052C16004618261416304B0BDE810404C
S3150000268002B070470000025C3F22034B1A6310221F
S31500002690DA6103229A6370470000025C024AD36B38
S315000026A09B07FCD4704700BF0000025C044B9B6A8A
S315000026B013F0240F14BF012000208000704700BFD4
S315000026C00000025C08B5FFF7F1FF064BDB6B23F455
S315000026D07F4323F0EF0303431EBF0122024BC3F8DF
S315000026E0FC2F08BD0000025C00F0FF3F4368182B7A
S315000026F00AD0202B1DD0102B2BD1174BD3F8043426
S31500002700DB010AD401207047134BD3F804349A0135
S31500002710F8D50B6843F008030B6003680F4A934231
S3150000272010D10B6843F040030B6000234360002088
S315000027307047094BD3F804345B01E3D50B6843F0CB
S315000027400403E9E7064A9342F1D10B6843F080039C
S31500002750EAE70720704700BF0000025C2024002043
S315000027601F2400200B4607B50749D1F80414C907F2
S3150000277008D5002100920246084600F033F803B05F
S315000027805DF804FB0120FAE70000025C0B4607B582
S315000027900749D1F80414C90708D500920121024659
S315000027A0002000F01FF803B05DF804FB0120FAE7F3
S315000027B00000025C1FB50A4CD4F8044464070CD52B
S315000027C0CDE900120021069C0222CDE9023403461F
S315000027D0084600F031F804B010BD0120FBE700BF49
S315000027E00000025CF0B51C465B6815468DB01A0702
S315000027F0129E1AD1CBB17268934216D10C4B0D4A78
S3150000280053F8217009AB07CA83E807001A46294620
S31500002810CDE90533CDE90333CDE90163009447F4EF
S31500002820807008F017F80DB0F0BD0720FBE700BF79
S3150000283064C3000034C300002DE9F0418CB0DDE92B
S31500002840127C7C681E46DDE9143E200728D13CB385
S31500002850DCF80400844223D15868102820D1DEF821
S31500002860040010281CD10F4809AC50F821500E491D
S3150000287051F822800D4A07CA84E8070045EA080095
S3150000288022463146CDE9054ECDE90344CDE901C4E2
S31500002890009740F0300007F0DDFF0CB0BDE8F08196
S315000028A00720FAE764C3000040C3000034C30000F9
S315000028B00138C0B206289ABF014B185C0020704749
S315000028C047C400000138C0B206289ABF014B185C05
S315000028D00020704740C400002DE9F04FBBB0804691
S315000028E003A880E80E001E467A4B1746D3F800244C
S315000028F08A46D4069DF8109103D401203BB0BDE86A
S31500002900F08F08F1FF32062A6DD8DFE802F00419CD
S315000029101F252B313700D3F80C34D807EDD501230A
S3150000292007930023B9F1010FCDE908332CD0B9F193
S31500002930020F5AD04046FFF7C5FF6324054631E033
S31500002940D3F80C349907D8D50223E9E7D3F80C3429
S315000029505A07D2D50423E3E7D3F80C341B07CCD5AA
S315000029600823DDE7D3F80C34DD06C6D51023D7E7F8
S31500002970D3F80C349C06C0D52023D1E7D3F80C3409
S315000029805806BAD54023CBE7524BD3F80C34D903BB
S31500002990B3D5079B404643F4C0630793FFF788FF10
S315000029A00324054613230422009307A94FF000537E
S315000029B012A807F00DFF5146009446F000533A4620
S315000029C007F006FF4FF0000B04465E46DDF814A143
S315000029D0469B9B452CD1B9F1030F42D14046FFF7E8
S315000029E071FFB84237D0072088E73A4BD3F80C245A
S315000029F0D20382D5D3F80C349B037FF57EAF97B113
S31500002A007C423946374604F00304079B404643F4AC
S31500002A10E0630793FFF74CFF24023E4605460F4648
S31500002A2044F0A304BEE704210DF1200A0C46ECE7AE
S31500002A30DAF8042016444AB1032300932046DAF854
S31500002A400830DAF8001007F0C3FE04460BF1010B5C
S31500002A500AF10C0ABCE7404608F01CF8013830427F
S31500002A60C1D17EBB032332462046009308A93346D4
S31500002A7007F0AEFE04260446103C204607F0BDFED5
S31500002A802046314607F0C4FE489BAB4228BF2B4682
S31500002A901C46EBB10023224600934799499B0AA89E
S31500002AA007F096FE2A1B04D000231946009307F070
S31500002AB08FFE103807F0A1FE12A80AA907F07DFEC6
S31500002AC000201BE716F0030618BFC6F10406D3E77D
S31500002AD00AA8E7E70000025C4FF40052034B00200F
S31500002AE09A660322C3F86022704700BF0090005028
S31500002AF04FF40052034B00209A660322C3F860226B
S31500002B00704700BF00A00050084B09495A6E4FF4A9
S31500002B108033D2034B6601F5E621D1F8040658BF8F
S31500002B20044A00F1805058BF536670470080005039
S31500002B300090005000A0005010B5FFF7E5FF00F12F
S31500002B40A043A3F58043B3F5606F17D802680C4B1A
S31500002B509A4213D103690533B3F5007F0ED20022E2
S31500002B6011469A4205D350F82300431A5842584159
S31500002B7010BD50F8224001326140F2E70020F7E72D
S31500002B80DEC0ECE510B5234CFFF7E8F8FFF7F0F9E7
S31500002B90236F012023F0070343F003032367FFF7A6
S31500002BA011FA1D4B00209B6A9B075EBF01221B4B3F
S31500002BB09A62D4F8203123F0030343F00203C4F8E9
S31500002BC02031D4F8243123F0070343F00203C4F87C
S31500002BD02431D4F8403123F0030343F00103C4F851
S31500002BE04031D4F8603123F0030343F00103C4F805
S31500002BF06031D4F8403223F0030343F00103C4F8F4
S31500002C004032D4F8003223F0070343F00103C4F83E
S31500002C10003210BD0080005000C0005000E000509F
S31500002C2053B94AB9002908BF00281CBF4FF0FF312D
S31500002C304FF0FF3000F082B9ADF1080C6DE904CE1B
S31500002C4000F006F8DDF804E0DDE9022304B0704781
S31500002C502DE9F04F099D0C46002B4DD18A420F46B7
S31500002C6084469646B2FA82F360D94BB102FA03FE65
S31500002C70C3F120029F4000FA03FC20FA02F2174338
S31500002C804FEA1E461FFA8EF44FEA1C42B7FBF6F1D6
S31500002C9006FB117701FB04F042EA0742904208D98D
S31500002CA01EEB020201F1FF3702D2904200F231819F
S31500002CB03946121A1FFA8CFCB2FBF6F006FB1022FC
S31500002CC000FB04F44CEA024C644508D91EEB0C0CDC
S31500002CD000F1FF3202D2644500F21E81104640EA3E
S31500002CE00140ACEB040C002125B12CFA03F30022C1
S31500002CF0C5E90032BDE8F08F8B4205D90DB1C5E9B3
S31500002D00000100210846F5E7B3FA83F100294DD109
S31500002D10A342C0F0F380904280F0F080064623463E
S31500002D200846002DE6D0C5E90063E3E7002B40F036
S31500002D30A3808A1A4FEA1E471FFA8EF60121B2FBBC
S31500002D40F7F407FB14204FEA1C4242EA004206FB56
S31500002D5004F090420FD91EEB020204F1FF382CBF9B
S31500002D604FF001094FF00009904203D9B9F1000F65
S31500002D7000F0CC804446121A1FFA8CFCB2FBF7F026
S31500002D8007FB102200FB06F64CEA024C664508D902
S31500002D901EEB0C0C00F1FF3202D2664500F2B38046
S31500002DA01046ACEB060C40EA04409DE7C1F1200654
S31500002DB08B4004FA01FE22FA06F720FA06FCF440DC
S31500002DC08A401F434EEA0C0300FA01FE4FEA1748F9
S31500002DD04FEA13491FFA87FCB4FBF8F008FB1044CE
S31500002DE049EA044400FB0CF9A1450ED93C1900F14F
S31500002DF0FF3A2CBF4FF0010B4FF0000BA14503D952
S31500002E00BBF1000F00F08B805046A4EB09041FFABB
S31500002E1083F9B4FBF8F308FB134403FB0CFC49EA03
S31500002E200444A44506D93C1903F1FF3801D2A44550
S31500002E307BD8434643EA0040A4EB0C04A0FB02986F
S31500002E404445CC46434602D306D1CE4504D201388A
S31500002E50B9EB020C68EB0703002D6CD0BEEB0C023D
S31500002E6064EB030422FA01F304FA06F6CC400021CF
S31500002E701E43C5E900643DE702FA03FEC3F12001E3
S31500002E8004FA03F200FA03FCCC404FEA1E4720FA8C
S31500002E9001F11FFA8EF6B4FBF7F00A4307FB104464
S31500002EA0110C41EA044100FB06F48C420ED91EEBDC
S31500002EB0010100F1FF382CBF4FF001094FF0000966
S31500002EC08C4202D9B9F1000F2CD04046091B92B2B0
S31500002ED0B1FBF7F407FB141142EA014204FB06F1C9
S31500002EE0914207D91EEB020204F1FF3801D291424A
S31500002EF01ED84446521A44EA004120E7861A64EB7B
S31500002F00030301200DE7F44402384AE7023C724409
S31500002F1031E702397244CCE6F4440238DFE602387F
S31500002F203C4472E702387144D0E7023B3C4481E7F7
S31500002F30023C7244DEE72946DCE600BF704700BF6C
S31500002F40014808F006B800BF70130020014807F0DA
S31500002F50D5BF00BF70130020014800F053B800BF72
S31500002F60701300200A460146014800F07BB800BFF6
S31500002F7070130020014800F0B5B800BF70130020A0
S31500002F801FB50A79064B02920A680831019202229D
S31500002F9000920CCB08F0BBF805B05DF804FB00BF4F
S31500002FA05CC4000030B50B7985B00333029301F1A0
S31500002FB04403019302230C460546114A009314313B
S31500002FC00CCA08F0A4F8238A04F12C010293E368E2
S31500002FD028460193237A009394E80C0008F097F8AA
S31500002FE00546237AA4F845002279216884F84430FE
S31500002FF004F1470007F00CFF284605B030BD00BFBE
S3150000300054C4000038B50546124B134C94E803002F
S3150000301083E8030019462846FFF7B2FFD4E9020108
S3150000302010220E4B83E80300194628461A72FFF752
S31500003030B9FFD4E904010222094B18341A7283E855
S315000030400300DC60194628461A82BDE8384007F0BE
S315000030505EBF00BF7414002070C400001C14002062
S31500003060F0130020F8B504460D4B0E4D0F46D5E97A
S31500003070070183E80300194620461646FFF780FF3E
S31500003080D5E909010222084B1A7283E80300DF60C2
S31500003090194620461E82BDE8F840FFF783BF00BFF1
S315000030A0D013002070C400007813002010B50C4621
S315000030B030B907F031F8034B186023600423A3806E
S315000030C0002010BDC416002010B50C4630B907F01C
S315000030D021F8034B186023600423A380002010BD51
S315000030E0C81600202DE9F74306466D464FF008093D
S315000030F0404C414B414F94E8030083E803001946D6
S315000031003046FFF73DFFD4E9020187E80300284671
S315000031103B4987F8089007F0F5FE95E8030007F1AC
S315000031200C0383E8030039463046FFF73BFFD4E93A
S3150000313004010C234FF00208324F87E803002846AB
S3150000314031493B7207F0DEFE95E8030007F10C03F8
S3150000315083E8030039463046FFF724FFD4E9060129
S315000031602A4B2B4A83E803001946304683F8088029
S31500003170DA60A3F81090FFF715FFD4E90801254B94
S31500003180254A264FDA60012283E8030019463046B5
S315000031901A8283F80880FFF705FFD4E90A0187E859
S315000031A0030028461E4987F8088007F0ABFE95E81D
S315000031B0030007F10C0383E803003946194F304634
S315000031C0FFF7F0FED4E90C0187E80300284616490C
S315000031D087F8088007F096FE95E8030007F10C03D0
S315000031E083E803003946304603B0BDE8F043FFF7F5
S315000031F0D9BE00BF24C50000A41600204C1600202E
S3150000320093AF0000F41500207BAF00009C15002052
S315000032101AC500004415002019C50000EC14002052
S31500003220C930000094140020AD3000007FB50023A3
S315000032300130CDE9043380B2054BCDE90101694681
S3150000324004200093039207F083FF07B05DF804FBA8
S31500003250212400201B22014B1A807047FC230020EA
S31500003260064B10B401241A7100221C705870598044
S31500003270042011465DF8044BFFF7D8BF2124002037
S315000032800322044B1A700022A3F801001146022003
S31500003290FFF7CCBF2124002082B00DF1080C0CE909
S315000032A00C00064B0522587003201A7059809DF8B1
S315000032B00420009902B0FFF7B9BF00BF2124002007
S315000032C00722054B1A700022A3F80100A3F8031089
S315000032D004201146FFF7AABF212400200A460B212D
S315000032E0024B197001460020FFF7A0BF21240020E1
S315000032F01322034B1A70002211461046FFF796BFA1
S315000033002124002010B40924044B1C70941C5C700A
S3150000331058805DF8044B0320FFF788BF2124002066
S3150000332030B40C46112511461A46054B1D70151D65
S315000033305D7058809C80052030BCFFF777BF00BFCA
S315000033402124002038B50023074D013989B20446EF
S315000033506B8000F03BF8024628B169882078BDE80A
S315000033603840FFF77DBF38BDFC230020024610B56C
S31500003370F8B1114B1968888890421AD398880024AE
S31500003380904281BF01200968988099609868998861
S3150000339020B904B198604FF6FF7203E08A4203D168
S315000033A00CB198609A8010BD01310124006889B281
S315000033B0EEE70020F7E700BFCC1600204FF6FF72BD
S315000033C0014B18609A807047CC1600202DE9F04713
S315000033D004780546122C0E4688B017D8012C18D949
S315000033E0A31E102B15D8DFE813F0160014002700D3
S315000033F0140047001400D1001400800014001400CB
S3150000340014001400140009011400A400522C00F04A
S31500003410AC8006242CE0022940F04681B0F8014039
S31500003420B4F5007F28BF4FF400742046FFF728FF4D
S315000034309E4B1C8000241BE0042919D1B0F80170B2
S3150000344006ADBEB22946304607F0DFFD044618B188
S31500003450964B5F800A240BE09DF81C303146022B08
S3150000346018BF022095E80C0008BF0120FFF714FFE3
S31500003470204608B0BDE8F08702278E1F00F1050838
S31500003480C31DB6B2019600938DF81470CDF8108066
S31500003490B0F803104246059BB0F8010007F0C2FDE4
S315000034A04FF6FF76B042044606D1AA786B7843EA17
S315000034B002237E4A5380CDE70023CDE90033CDF8C1
S315000034C018808DF81C7008AB0130314613E90C00EA
S315000034D080B207F0A7FD0146B0421CBF00F1FF31E4
S315000034E089B22046FFF7ECFEA4E7022940F0DC8013
S315000034F0B0F8010007F0E8FD6C4E044628B16B7881
S31500003500AA7843EA02237380B2E733880146013B77
S31500003510ADF81030B5F8010004AB06AA07F0E6FDD9
S3150000352004460028EBD1BDF810100698FFF7D6FE2A
S315000035309EE70821B0F8010007F0C6FD044630B149
S31500003540AA786B7843EA0223584A538090E7B31E61
S3150000355001469BB2B5F80100EA1C07F09CFD044643
S315000035600028EDD1FFF7C4FE64E70421B0F801009E
S3150000357007F0AAFD014600287FF45CAFB31EB5F83C
S3150000358001009BB2EA1C07F086FD53E70E1FB6B298
S31500003590022E02D0102E40F087800024CDE9004490
S315000035A06B1D06938DF81C6008AB13E90C00B5F88B
S315000035B00310B5F8010007F035FD4FF6FF7398428A
S315000035C006463A4F05D16B78AA7843EA02237B80F8
S315000035D040E73B882146043BADF80E3004AA0DF1C6
S315000035E00E0307F083FD044608B17E8040E73046AF
S315000035F0BDF80E200499FFF785FE39E70E1FB6B217
S31500003600022E01D0102E4FD10024CDE9004405F141
S31500003610050AF6B28DF81460CDF810A05246059B47
S31500003620B5F80310B5F8010007F0FCFC4FF6FF797A
S3150000363048450746DFF8748006D16B78AA7843EAD6
S315000036400223A8F8023005E7CDE90044CDF818A01A
S3150000365006AC8DF81C60013094E80C00494680B237
S3150000366007F0E0FC0546B8F800304845A3F106032C
S3150000367018BF00F1FF352246ADF80E304FF00001BD
S3150000368038460DF10E0318BFADB207F02FFD044604
S3150000369010B1A8F80270EBE629463846BDF80E30A0
S315000036A0069AFFF73DFEE3E60424E1E6FC2300204C
S315000036B00022014B1A607047D816002003291FB557
S315000036C003460A461CD90188081D824218D304D82D
S315000036D05888042805D0062807D0012005B05DF8D3
S315000036E004FB181DFFF72EFEF7E70023CDE9023392
S315000036F0044B694600930223019307F029FDECE78A
S315000037000020EBE7BE24002037B500220DF10700AC
S31500003710114600F05FF89DF807300C4C0BB1002302
S31500003720236021680A4DC1F5017292B229440DF158
S31500003730070000F04FF82368C11828462160FFF7FC
S31500003740BDFF08B10023236003B030BDD8160020AA
S31500003750DC16002010B504464FF4807300210E4A93
S315000037600E4807F081FD4FF4807300210C4A0D4886
S3150000377007F07AFD2046FCF7E3FC07F03DFD00F07C
S315000037801DFC07F023FC830705D500F0E1FABDE830
S31500003790104000F07BB910BD101A0020F818002068
S315000037A010190020E018002008B513460A46014605
S315000037B0024807F017FEC0B208BD00BFF818002087
S315000037C008B5034807F059FD003818BF012008BDA9
S315000037D0F8180020F8B50E461746044608F02AFCED
S315000037E0214605463B463246044807F0FBFD0446A3
S315000037F0284608F01AFC2046F8BD00BFE018002055
S3150000380008B5034807F039FD003818BF012008BD88
S31500003810E0180020F8B50E461746044608F00AFCE4
S31500003820214605463B463246044807F0A6FD0446B7
S31500003830284608F0FAFB2046F8BD00BFF81800201D
S3150000384010B50C460146044807F0F6FDA04234BF09
S315000038500020012010BD00BFE0180020F8B50F467B
S31500003860114606461546FFF7EBFF044628B12B46E0
S315000038703A463146024807F080FD2046F8BD00BFB3
S31500003880E018002010B5034CA07900F0DBFC002303
S31500003890236010BD101B002010B5044C204600F01C
S315000038A067FC002344F8063C10BD00BF161B002031
S315000038B010B5074CB4F80710A07900F08BFCB4F8EB
S315000038C00D10B4F8090000F099FC0023236010BD28
S315000038D0101B0020014B998018607047101B0020B8
S315000038E00022014B1A607047101B0020034A136820
S315000038F01BB19288824200D118477047101B0020E6
S31500003900014B18701846704728240020162808BF57
S315000039101320022110B5084C60702046217000F07B
S3150000392085FC00F0D1FD054B054A05301A6062782A
S3150000393098809A7110BD00BF28240020101B00201B
S3150000394085380000037810B50C2B04460AD80C2BDA
S315000039500AD8DFE803F03B275209090909095B0980
S3150000396009091500142B62D0204600F095F80028AE
S3150000397042D1072223783A480221027043700DE0B3
S315000039800C2337484FF0FF320370012382704370D7
S315000039900222037100230621C2704371BDE8104064
S315000039A000F044BCC17983792E4A43EA012393800F
S315000039B013462D4943F8061BD0F80110C2F806102D
S315000039C0B0F805209A80C2799A7115E0C27A837A96
S315000039D0244943EA02238B800B46244A43F8062BEC
S315000039E0D0F80120C1F80620D0F805205A60B0F8BA
S315000039F009201A81C27A9A7210BD00F065FD194B32
S31500003A001B4A05301A6098806278DDE700F06AF993
S31500003A10D4F80130092163F0FF0303401048024641
S31500003A20C0F80130002302F8011B5360B6E7B0F876
S31500003A300310B0F8010000F0EFFB15230848002141
S31500003A406FF004046FF02702037007238170817101
S31500003A5044700921C27003714471C27103729DE7FB
S31500003A6028240020101B002099380000B1380000DF
S31500003A708538000008B5044B987900F0C7FBBDE80F
S31500003A800840FFF72DBF00BF101B00200122014B8D
S31500003A901A70704734240020144B70B51E78054602
S31500003AA02EB10378162B04D0182B13D000263046DF
S31500003AB070BD8378447817201C4004F00304022C60
S31500003AC018BF0124FFF71CFF02214470847007F021
S31500003AD090FBECE7B0F803100548FFF7FBFED5F8BE
S31500003AE00120044BC3F80620E1E700BF3424002080
S31500003AF0753A0000101B002013B50D4B01281B88DA
S31500003B000C4CADF80030ADF8043002BF02238DF83E
S31500003B10003004236946206808BF8DF8043007F09A
S31500003B201BFD206801A907F02DFD02B010BD00BFE6
S31500003B3084C50000581B002030B5224C87B025698B
S31500003B402DB322F480410839194322D1032101AA59
S31500003B50206807F084FD636860615B7A0220237643
S31500003B609DF8043004F11801DA1F53425341627E76
S31500003B7063F30002039B6276E361BDF8063063835C
S31500003B802369984701220021206807F06EFD07B0DF
S31500003B9030BD02F17F41194306D1002101202B4699
S31500003BA007B0BDE830401847A2F5805119434FF0E1
S31500003BB0000103D0A2F580421A4301D10320EEE7AB
S31500003BC0FF20ECE7581B002007B500220B460092A9
S31500003BD00A4601460348006807F02BFD03B05DF86E
S31500003BE004FB00BF581B0020F0B50446154D164ACD
S31500003BF06B68807A5B7A85B0D75C0E46FFF77CFFF0
S31500003C00237A022B0DD1002339461A46286807F07D
S31500003C103AFC98B10021FF20334605B0BDE8F040DC
S31500003C201847002221680092039202918DF80C3009
S31500003C303946286802AB07F028FCEAE72E6105B092
S31500003C40F0BD00BF581B00205CC500002DE9FF41F8
S31500003C5004461B4D1B4A6B68807A5B7A0E46D75C1E
S31500003C60FFF74AFF237A4FF00108022B08BF012312
S31500003C708DF80430636818BF226803F1640308BF37
S31500003C8000220293637A0024394600928DF80C30A4
S31500003C906A46234628688DF80D808DF80E4007F099
S31500003CA0F6FB074642462146286807F0DEFC2FB1A0
S31500003CB02146FF20B04704B0BDE8F0812E61FAE747
S31500003CC0581B00205CC500000022034B03211A612B
S31500003CD01868012207F0D2BB581B00200048704725
S31500003CE0601B0020014B188C704700BF581B00203A
S31500003CF010B5094C86B06A466169206807F0B1FCC8
S31500003D00638B694603332068ADF8043007F0ABFCDB
S31500003D10009806B010BD00BF581B00201FB500223A
S31500003D20CDF80A20ADF80E204268084B00920268D2
S31500003D3058600192427A69461868ADF8082007F083
S31500003D40D3FC00F00DF805B05DF804FB581B00200D
S31500003D50024A138C43F4807313847047581B002067
S31500003D6038B50D4C238CDB050CD563680B4D1B7ADF
S31500003D702A789A4206D0012B05D0022B07D0636819
S31500003D801B7A2B7038BD206800F070FEF7E72068BC
S31500003D9000F074FEF3E700BF581B00203524002016
S31500003DA010B50024064B1C60064B1C7007F048FA41
S31500003DB0B0FA80F3044A5B091370044B1C7010BD03
S31500003DC07C1B0020382400203724002036240020C5
S31500003DD010B5074B1C782CB9064B1B7833B107F08E
S31500003DE037FA044600F066F8204610BD8124F9E74C
S31500003DF0382400203724002038B50A460F490346E8
S31500003E000978C1B10E49087850B90E4C24783CB9EE
S31500003E100D4C20681518B5F5806F02D98220087000
S31500003E2038BD1946094B184406F0F2FF2560BDE877
S31500003E30384000F00DB88120F2E700BF372400209B
S31500003E4038240020362400207C1B0020801B002004
S31500003E5038B5134B134D1A782968022A0ED0032958
S31500003E6001D8002038BD104A1068104A904203D08D
S31500003E7084200F4B1870F5E702221A700A48FCF7E7
S31500003E8091FA04462A680749074807F0B6F9002C54
S31500003E90E7D041F207039C42E3D08520E9E700BF63
S31500003EA0372400207C1B0020801B0020EB17A60374
S31500003EB0382400200022014B1A7070473724002056
S31500003EC01FB5124C637A20460133DBB2282B28BF7C
S31500003ED025236372FFF722FF0023CDE90233E3684F
S31500003EE0627C01930123617DD207094801F1020139
S31500003EF08DF80C3048BF8DF80E30FFF765FE05498A
S31500003F0001A8FFF771FE04B010BD00BF801F00209E
S31500003F10941F0020193F0000022810B51BD002D8BC
S31500003F20012805D0FEE7032843D0FF2841D0F9E752
S31500003F30214C637C990707D5FFF7C6FEFFF7C0FF44
S31500003F40637C6FF341036374637CDA0730D4BDE8A6
S31500003F501040FFF7B5BF4B78DB072AD54C682178B0
S31500003F6001F00F03032B11D0052B22D1C90904F14F
S31500003F70080007F06CFAD8B1FFF7A6FEFFF7B8FE07
S31500003F8001462046BDE8104000F0A4BAC90904F174
S31500003F90080007F05CFA58B1074C94F83D1004F19C
S31500003FA03C000231FFF710FE637C43F002036374AA
S31500003FB010BDFFF789FECAE7801F002010B50A4C26
S31500003FC05A220021204606F05AFF42F21072C4F827
S31500003FD00220064A44F80A2C054A44F8062C42F206
S31500003FE0015224F8022C10BD8A1F0020D6BE898EED
S31500003FF05555550038B50446FFF766FE002C3FD0F0
S31500004000204C257C627CB5FA85F35B0963F30002DC
S315000040106274FFF763FE837905F00F05C3F30003AF
S3150000402045EA8315237D23F04F031D43637D2575E4
S315000040300BB9062363750368C4F816308288124BE1
S315000040409A80FFF74BFE837994F83C20C3F3000374
S315000040509B0143F0040322F04F02134384F83C30E3
S3150000406094F83D3013B9062384F83D300368C4F84C
S315000040703E308288054B9A80BDE83840FFF720BF66
S3150000408038BD00BF801F0020961F0020BE1F0020E5
S3150000409020290A4608B509D8054B06315975014647
S315000040A003F11C0006F0B4FE002008BD1220FCE758
S315000040B0801F002020290A4608B50AD8064B06317B
S315000040C083F83D10014603F1440006F0A1FE0020EE
S315000040D008BD1220FCE700BF801F00200A20D0B5D3
S315000040E00B4CE38C584305F055FD0646A08C0F4655
S315000040F005F050FD0022074B05F0B6FD02460B46C3
S315000041003046394605F0DAFE05F0C0FF2083D0BD03
S31500004110E42000200000F43F1FB5134CA37E5A068E
S315000041201FD423F0070343F001032089A376FFF78A
S31500004130DDFBA37A04F10C00234493F82A3063755F
S31500004140FFF7ECFDD4E90032A3EB520103EB520377
S3150000415002934FF48033019101A804490393FFF7BA
S3150000416075FD04B010BD00BFE4200020B142000080
S315000041700022134630B58BB0D910415C03F007041A
S315000041802141CC0742BF02F12801694401F8283CCD
S3150000419003F1010348BF0132252BEDD100230C4C5E
S315000041A0D910415C03F007052941C9075FBFB3FB7E
S315000041B0F2F102FB1131283169444CBFD9B211F832
S315000041C0281C0133252B04F8011FE9D10BB030BDA3
S315000041D00D21002010B540F2E244074A60431368FF
S315000041E000F5807004FB013303EB50031360536842
S315000041F00344536010BD00BFE4200020024B9884A6
S31500004200D984FFF76BBF00BFE4200020014B18756F
S31500004210704700BFE4200020C908814228BF01463C
S31500004220014B1985704700BFE4200020044B5A6DEE
S3150000423022B95865A3F8581001207047002070472E
S31500004240E4200020034A937E43F04003937606F071
S31500004250CEBF00BFE420002010B5144CA37E5B0641
S3150000426023D4FFF731FD40F2E241A28C236801FB23
S31500004270023394F84F102360A37A0B442521B3FB35
S31500004280F1F001FB10330A21A37223890133238144
S31500004290636801FB02336360238B5A1E228323B9B2
S315000042A0BDE810400820FFF7CDBF10BDE420002078
S315000042B00228F7B50E460BD003D8012800F0F1808E
S315000042C0FEE7032800F0F380FF2800F0F080F7E710
S315000042D04D784F6815F00105794C59D10025A37E1C
S315000042E0784F13F0200F12D0616D6FF34513A3764C
S315000042F0002900F0BB803B7894F8582043F0030374
S31500004300B81C3B707A7006F083FD00236365FFF7E7
S3150000431057FAA37E797860F34103C3F3C002A3760C
S31500004320C3F300139B0043EAC2033A7843EA00133F
S3150000433022F01C0203F01C0302311343C9B2614888
S315000043403B70FFF741FCA37E7668D90709D56FF36A
S315000043500003A37600236360FFF7CAFC2060FFF723
S31500004360BDFE002D00F0AA80337803F00303022B74
S3150000437006D0032B00F08E80012B40F09F80002595
S3150000438028467278B11C03B0BDE8F040FFF766BA64
S315000043903B78A27EC3F3001363F382023B78A276D6
S315000043A0D1B2C3F3C000C2F30012904210D0A17E76
S315000043B0C3F38003C1F3C00293428FD082F001029F
S315000043C0D20042F0200221F028010A43A27685E7B6
S315000043D003F00302022A1DD0032A03D0012AE6D1E4
S315000043E0002018E0C1F3C002C3F38003934208D053
S315000043F082F00102D20042F0200221F028010A4395
S31500004400A276A37EC3F3001282F0010262F30413C4
S31500004410A37664E72846797891B9A17EC3F3800331
S31500004420C1F3C002934201D10025EAE782F00102FE
S31500004430D20042F0200221F028010A43A276F3E7D7
S31500004440FFF7FEF9A27E3978C2F3C003C1F38001FB
S31500004450994208D083F00103DB0043F0200322F0E9
S3150000446028021343A3760028CBD137E794F82820F7
S31500004470B91C0DF10700FFF797F948B19DF8073011
S315000044800133DBB23A78787063F301023A703EE7A3
S315000044900123F7E77178B01C03B0BDE8F040FFF7E1
S315000044A051BA074B9B7E9A0708D45B0706D4FFF7E1
S315000044B0D3FE03B0BDE8F040FFF72EBE03B0F0BD5B
S315000044C0E4200020E41F0020014B1889704700BF3C
S315000044D0E4200020F8B5224D04460E465C22002159
S315000044E0284606F0CCFC2023AB7605232B83627E80
S315000044F0237E012743EA0223AB84627F237F04F1F4
S315000045001E0043EA0223EB8494F82330C3F304032A
S3150000451085F84F3094F82330C3F3421385F85030B2
S315000045201B232B85FFF724FED4F80E30E27CEB60CC
S31500004530A37C2E6043EA0223227D2F7543EA0243C1
S315000045402B6195F84F30607DAB72E18A3944FFF7F5
S3150000455041FEFFF7E1FD204606F047FE3846F8BD6E
S31500004560E42000202DE9F843DFF860900646D9F8EC
S31500004570008008461746B8F1000F03D00E242046E7
S31500004580BDE8F88306B3336801331DD1E1B100F00D
S3150000459027F805460028F1D0C9F8000000F086F893
S315000045A0284606F086FF044640B14046C9F800801A
S315000045B000F07CF8284606F077FFE0E73560002F2C
S315000045C0DDD02846B847DAE72124D8E74021002085
S315000045D0024B1868003818BF0120704740210020A0
S315000045E0F8B5044607F026FD002607460E4B1B6865
S315000045F093B19E68AEB196F82420D20711D4354601
S315000046000FCC0FC50FCC0FC523682B6096F824304E
S3150000461043F0010386F82430384607F006FD30469D
S31500004620F8BD1B68E4E700BF70240020431E033377
S3150000463006D8044B984228BF1846642838BF642021
S31500004640704700BF40420F0038B505460C4641B1E1
S315000046500B6833B11B68013303D0CB680BB18B6891
S3150000466043B907F0AFFA00209122412100F0E8F9A2
S31500004670212038BD084602F079F80023094A85F85A
S315000046803C31C5E93A4313605360636943B1064A56
S3150000469042211068B322C31A5842584100F0D0F99B
S315000046A00020E6E7642400208823002010B5044695
S315000046B018B9054B054A136010BD00F027FAD4F867
S315000046C0F430002BF6D1F4E78DB5000074240020F9
S315000046D008B502460868FFF7A9FF08604868FFF7B3
S315000046E0A5FF48608868FFF7A1FF8860C868FFF7E4
S315000046F09DFF0B69C860581C03D00B48834228BF36
S3150000470003460B614B69581C03D00748834228BFF8
S31500004710034688694B61FFF789FFBDE80840886159
S31500004720104600F01BBE00BF40420F00D0F8EC3030
S315000047302DE9F04105460C4613B1838D8B424CD0D2
S31500004740D5F8E830002B4BD09E68002E48D0D868AC
S31500004750002845D0013800B200281ADB002106E007
S31500004760128A591CA24217D209B2884211DB0B18D1
S3150000477003EBD3735B1003EBC30206EB8202B2F8C2
S315000047800EC003F1FF3EA445EAD90FFA8EF0884227
S31500004790EDDA2120BDE8F0814FF6FF7299B2914221
S315000047A0F7D09BB203EBC30306EB83062846B6F9A4
S315000047B0122095F83011D5F8FC8005F043FF074626
S315000047C0B8F1000F04D00023324628461946C047E8
S315000047D0AC85C5F8EC6085F839710020BDE8F0813C
S315000047E00E20BDE8F08100BF2DE9F04782B00446F7
S315000047F00F46164600F022FE002840F086805A4DED
S315000048002B68D4F8E890D4F8EC8013B14B4500F04F
S3150000481089804FF0000AAF6001F064FA012807466C
S3150000482004D001210022084606F07EFE2B68D9F846
S315000048300010D8F8002013B1186888427FD02046AF
S3150000484007F02CF9BAF1000F11D086B9204601F015
S3150000485043F80546D4F89430002B37D1012F02D007
S31500004860002D56D10025284602B0BDE8F0873F4B03
S31500004870C5F800901A78C5F804808DF8076062BB09
S31500004880D4F8FC50002D62D0114620460DF10703E6
S31500004890A847204601F020F80546BAF1000F31D1AD
S315000048A0B5FA85F040F205423321400900F0C8F818
S315000048B03146204601F032F92D4B05461B6841462C
S315000048C020469847D4F89430002BC7D000224FF4E6
S315000048D00073204600F02AF9C0E7D4F8EC30B4F9AA
S315000048E0441023B1B3F912309942A8BF1946324693
S315000048F0204600F045FF204600F0EEFF0546BAF1DF
S31500004900000FCDD0002ECBD1A4E70023164D6B604F
S3150000491076E7184B00215B6803209847284602B0CB
S31500004920BDE8F0876B68002B3FF473AF43457FF417
S3150000493070AFAB689F4295D04FF0010A6BE769688C
S3150000494019B1096891423FF47DAF596877E794F849
S31500004950281094F839313246994228BF1946204624
S3150000496000F0DCFE95E700BF6424002088C200004A
S31500004970742400207C240020F8B50E46054607F076
S3150000498059FB314607462846FFF7D0FE044620B1BC
S31500004990384607F04AFB2046F8BD01F083F9224667
S315000049A031462846FFF720FF0446384607F03DFB10
S315000049B02046F8BD70B5044600200D4607F006F9FE
S315000049C0094B1B784BB9D4F8FC6036B12946204612
S315000049D0B446BDE870401A46604729462046BDE801
S315000049E0704007F04AB800BF88C2000030B4064DD8
S315000049F0BDF908402D781DB1029430BC07F040B8CF
S31500004A000E2030BC704700BF3C240020024B1860CB
S31500004A10024B1960FEE700BF4423002078240020E3
S31500004A2038B5044D044C054B286021601A60FFF729
S31500004A30EDFF38BD442300207824002048230020C1
S31500004A4010B550B90548064B016006480260186863
S31500004A50054B18601868FFF7E3FF10BD78240020A7
S31500004A60402100204823002044230020024B00223E
S31500004A70196807F02CB800BFF4C50000024B0122EC
S31500004A80196807F024B800BF64230020024BD868D9
S31500004A90C0F30360704700BF000002B8F8B50446D3
S31500004AA00F46164607F0C6FA0546A047044620B14B
S31500004AB0284607F0BAFA2046F8BD04F06DFD042238
S31500004AC00549D1F8EC3E23EA07033343C1F8EC3E2F
S31500004AD0024B1A64ECE700BF003000B0002002B8B9
S31500004AE000F01803182B0AD003070AD440F201136A
S31500004AF010F0100018BF1846034B98677047002047
S31500004B00FAE70120F8E700BF003F00B038B10368BC
S31500004B10044A002B08BF1346034A13607047014B33
S31500004B20FAE700BF0BB700008824002010B4D0E9D4
S31500004B30544122400B4052EA030104D003495DF878
S31500004B40044B096808475DF8044B70478824002029
S31500004B500F2938B505460C460ED801F0C3F80128D2
S31500004B600CD1074A2846536E23F00F03234353669E
S31500004B7006F0A3FF002038BD2120FCE70220FAE75B
S31500004B80003F00B008B50E4B1A6C12F0A00F01D012
S31500004B90002008BD5B6C5B070FD40A4BD3F8EC3ED4
S31500004BA023F07F4323F0FF033BB1FFF76FFF092894
S31500004BB0EED00C3818BF0120EBE70120E9E700BF73
S31500004BC0000002B8003000B070B50D46064620B9A8
S31500004BD01A4B1B68CBB10E2016E001F083F80128B2
S31500004BE02AD1174BD6F8F00093F9004006F015FFCE
S31500004BF0C4F12704241A641BC4F11C03002BB8BF9C
S31500004C005B42232B0CDD212070BDA1F10B03002B91
S31500004C10B8BF5B42232BF6DC094B19700020F3E783
S31500004C2086F8265007F006FA054660B200F0CCFC7E
S31500004C30284607F0FAF9F1E70220E5E740210020CF
S31500004C403924002008B506F061FD8022024B586722
S31500004C50024B1A6108BD00BF003F00B0000002B859
S31500004C6090F82530023B022B05D84B7C2BB1012B4B
S31500004C7005D0022B05D006F0ABBD034870470348AC
S31500004C8070470348704700BF20A1070048E80100AD
S31500004C9040420F000A78022A11D0101F42424241B8
S31500004CA052004B781201022B0BD0191F4B424B417D
S31500004CB05B000549054842EA8312FFF7EFBE012271
S31500004CC0EFE70123F5E700BFF0FFFF002D5D0000D1
S31500004CD00B78022B10D0181F434243415B004A78E1
S31500004CE0022A0BD0111F4A424A4152000F210448A2
S31500004CF043EA8202FFF7D2BE0123F0E70122F5E77D
S31500004D00595D0000D0F8B03010B5994204460ED077
S31500004D10C0F8B01001F0B6FD0649A4F8340101232D
S31500004D20054AD1F8FC1004F5827003F0F5F800206E
S31500004D3010BD00BF004F00B0A43F00B02DE9F743FF
S31500004D4004460F4615461E46FFF71CFF38B3A38AD6
S31500004D502BB3204606F095FC78B96F4BD3F8EC2EB2
S31500004D601EB10E2003B0BDE8F08302F03003102B15
S31500004D70F7D002F0C002402AF3D0DFF8C48103F076
S31500004D8023F8D8F81430DE07EBD507F053F90646BA
S31500004D90032002F05BF920B1304607F046F9022005
S31500004DA0E0E7D8F8142012F00608F5D1304607F0EF
S31500004DB03CF9594B4FF400612046D3F8EC9ED3F8EA
S31500004DC0CC6E04F043FD40B14FF400720121534B09
S31500004DD008461A64424606F0A7FB39462046FFF706
S31500004DE0CBFD4D4BC3F8EC9EC3F8CC6E0028B9D171
S31500004DF094F82430980601D4002D4DD0C5F3400018
S31500004E0003F098FB022315F4807F1FBF444A00215C
S31500004E1013644FF03A420BBF404A916113645363E7
S31500004E2004F0BAFB4FF4806315F0040F14BF3D4A3B
S31500004E303D4A3A4E5362042328463364FFF750FE38
S31500004E40204606F0EDFC38B14FF4807315F0010FE3
S31500004E5016BF334A33641364A90646D54FF6FF726C
S31500004E60E38F93420FD0314A3149526E100CC2F390
S31500004E7001120132B3FBF2F308802A4A2A492D486F
S31500004E801B0448665366003D18BF012594F824307C
S31500004E9065F3451384F82430204606F00BFEF0B186
S31500004EA0204606F0BDFCD0B14FF40031204604F098
S31500004EB0CDFC431C03229BB21F4801A906F079FED4
S31500004EC09DF8042002F00703052B9DF8053015D147
S31500004ED012070DD443F48073184AC2F8D430002068
S31500004EE003B0BDE8F04306F071BE00F0BBFECAE7B2
S31500004EF013F0040F09D19DF80630EBE703F03002FA
S31500004F00202A05D113F0010FF4E74FF48073E3E78D
S31500004F109DF80630E0E700BF003000B0002002B880
S31500004F20001002B8005001B8006001B8004001B896
S31500004F30B62400200000FFFF0C0000BA003E00B0BF
S31500004F4000C001B82DE9F0470B460746154611B9D2
S31500004F502120BDE8F087002AFAD0032905D80022CF
S31500004F6001F052FB03460028F2D01C889A78B4F56B
S31500004F70804F02F0070180F0CA80A1F1070C187972
S31500004F8093F805A0DE88DCF1000343EB0C0305294A
S31500004F902B7394BF0023C2F30013C2F3801C6B7300
S31500004FA0930985F810C003F00203C2F3C00C43EA6C
S31500004FB00C03C2F34012E8746B74AA74D7F89C30E1
S31500004FC0AE82D80600F18F800639012900F28B8067
S31500004FD0B7F81280D7F81C9008F1FF384D4B083C03
S31500004FE004EA08045B6D19F804300020802B0CBF1E
S31500004FF06FF07F03323B04F1010418BF5BB204EA91
S315000050000804AB73631D03EA08035A1CA86002EA8E
S31500005010080219F8036019F8022097F8253046EAC5
S315000050200226FF2B36B228D1F10455D5D7F8F03039
S3150000503013B11B68022B05D841F212324C21002015
S31500005040FFF7FEFCD7F8F030C6F30B0093F82430D8
S31500005050C0000BB1B0FBF3F0824542D838B1CAEBC1
S315000050600A2ABAFBF0FA6FEA0A0A5FFA8AF0D7F858
S31500005070F83013B195F90E109847631CE87303EAEC
S31500005080080319F80340013303EA080319F803205B
S31500005090013303EA080344EA022419F80320013322
S315000050A003EA080319F8033044EA024444EA0364B5
S315000050B016F4804306D0384600F0E2F9B0FA80F3E1
S315000050C05B095B00214638466A7C02F0D3FF062363
S315000050D02860AB7100203CE719F804004000C0B21C
S315000050E0C5E70020C3E700230020EB730A4BDA690B
S315000050F0C2F30723120448BF63F0FF035AB212F14A
S31500005100800F1CBF323B5AB2AA730346E0E7022067
S315000051101FE700BF004000B800C000B8082310B168
S31500005120024A13647047024AFBE700BF001002B848
S31500005130002002B8054A12681AB190F82A1119B966
S315000051401047084602F0AABA014870474C230020CF
S3150000515000FEFFFF354B2DE9F7431C6801F400798B
S3150000516000F00103174653EA090206460D4637D0FA
S315000051704FF000084BB30023002201200021CDF898
S315000051800480CDF8008003F0D7FF41462046FFF7A4
S31500005190D1FF01224146E085DFF8A480104606F0E3
S315000051A0C3F9D4F89C1094F8250002F0F5FAD8F863
S315000051B0000000F057F94FF0FF33C8F8003094F8BC
S315000051C0243043F0040384F82430B9F1000F07D0EB
S315000051D00121204606F0C5FD25F4007506430D4362
S315000051E02B4632462046FFF7A1FCFB070FD5104998
S315000051F0104A086800211368116001210E4A1170D7
S3150000520003B198470D4B002102205B68984717F0C1
S315000052100E0F08D040F2C7123B21002003B0BDE8B4
S31500005220F043FFF70DBC03B0BDE8F083402100203A
S315000052305C230020602300203B2400207C240020E7
S315000052408424002008B558220021064805F017FEE0
S315000052501022FF21044805F012FE04F001FB002095
S3150000526008BD00BFF03E00B0343F00B073B52F4A12
S315000052702F49137809784FF0FF350B4313700C2331
S31500005280742280F83031A0F820216D238222C0F8E4
S315000052900C31C0E944236423C0E946336FF07C43F4
S315000052A083624FF40043A0F84430224B0026C363C8
S315000052B000F15003C3644FF6FF73044680F82530AF
S315000052C003F58003C0E90C3580F82660C0F8B050BD
S315000052D0858502F09BFF2046FFF7B4FF94F9261060
S315000052E02046FFF771FC6023134A40F6FF71D36432
S315000052F04FF03A4211631167104A2946D36440229F
S315000053000F4B20461A64D4F89C2006F055FA0E235B
S3150000531000220193009340F202231046194603F03F
S315000053200BFF01F07FFA304602B070BD3C2400202E
S3150000533088C200000700FFFF004000B8005000B818
S31500005340002002B8044BD3F8EC3E13F0806F14BF74
S3150000535023200020704700BF003000B00246F8B599
S31500005360B0F8344100F58275FFF7ECFF0B688E68E4
S31500005370013304BFD2F80C310B604B68013304BF14
S31500005380D2F818314B60771C3FD1D2F81431CF6870
S315000053908B607E1C40D1D2F810610F69CE60013758
S315000053A004BFD2F804710F614F69013704BFD2F808
S315000053B008714F618F69013704BFD2F81C718F6184
S315000053C08F6987BBC0F1640408688C6110B16D28D1
S315000053D038BF6D20C2F814314B68C2F80C01C2F810
S315000053E018310B692846C2F804314B691149C2F8D5
S315000053F01061C2F81C41C2F80831D1F8FC1007232D
S315000054000D4A02F089FD0020F8BD04F16D031B1A58
S31500005410B34238BF3346BAE704F17406361ABE42C1
S3150000542038BF3E46B9E76D34241ABC4238BF3C4605
S31500005430CAE700BF004F00B0A43F00B04FF40022FF
S31500005440034B186C03F500531A64C0F3C040704751
S31500005450000002B8024B586900F00100704700BF17
S3150000546000C001B8431C07D06FF0FF02034B104089
S315000054705A62A3F580535862704700BF00E000B837
S31500005480014B986E704700BF003F00B0014B0020F3
S3150000549099667047003F00B003282DE9F74F0C4688
S315000054A0914679D83D4B13F800A03D4B1E5C3D4B11
S315000054B013F800B006F0BEFD804604F037F8074644
S315000054C040B1002300220193009301200023002114
S315000054D003F032FE04F032F848B1002300220193B3
S315000054E00093002000234FF4004103F025FE002E18
S315000054F045D02D4BDD6C05F008050AEB06002B4B5D
